{
  "contractName": "TreePresell",
  "abi": [
    {
      "inputs": [],
      "payable": true,
      "stateMutability": "payable",
      "type": "constructor"
    },
    {
      "constant": false,
      "inputs": [
        {
          "name": "treeType",
          "type": "uint256"
        }
      ],
      "name": "buy",
      "outputs": [
        {
          "name": "",
          "type": "uint256[8]"
        },
        {
          "name": "",
          "type": "uint256[8]"
        }
      ],
      "payable": true,
      "stateMutability": "payable",
      "type": "function"
    },
    {
      "constant": true,
      "inputs": [],
      "name": "getSellInfo",
      "outputs": [
        {
          "name": "",
          "type": "uint256[8]"
        },
        {
          "name": "",
          "type": "uint256[8]"
        }
      ],
      "payable": false,
      "stateMutability": "view",
      "type": "function"
    },
    {
      "constant": true,
      "inputs": [],
      "name": "getBalance",
      "outputs": [
        {
          "name": "",
          "type": "uint256"
        }
      ],
      "payable": false,
      "stateMutability": "view",
      "type": "function"
    }
  ],
  "bytecode": "0x6080604052336000806101000a81548173ffffffffffffffffffffffffffffffffffffffff021916908373ffffffffffffffffffffffffffffffffffffffff16021790555061050a806100536000396000f300608060405260043610610057576000357c0100000000000000000000000000000000000000000000000000000000900463ffffffff16806312065fe01461005c57806331cf716d14610087578063d96a094a14610109575b600080fd5b34801561006857600080fd5b50610071610194565b6040518082815260200191505060405180910390f35b34801561009357600080fd5b5061009c61020e565b6040518083600860200280838360005b838110156100c75780820151818401526020810190506100ac565b5050505090500182600860200280838360005b838110156100f55780820151818401526020810190506100da565b505050509050019250505060405180910390f35b61012760048036038101908080359060200190929190505050610368565b6040518083600860200280838360005b83811015610152578082015181840152602081019050610137565b5050505090500182600860200280838360005b83811015610180578082015181840152602081019050610165565b505050509050019250505060405180910390f35b60008060009054906101000a900473ffffffffffffffffffffffffffffffffffffffff1673ffffffffffffffffffffffffffffffffffffffff163373ffffffffffffffffffffffffffffffffffffffff161415156101f157600080fd5b3073ffffffffffffffffffffffffffffffffffffffff1631905090565b6102166104ba565b61021e6104ba565b6102266104ba565b61022e6104ba565b600080600091505b600882101561035a5760018260088110151561024e57fe5b0180549050600603848360088110151561026457fe5b6020020181815250506000838360088110151561027d57fe5b602002018181525050600090505b60018260088110151561029a57fe5b018054905081101561034d573373ffffffffffffffffffffffffffffffffffffffff166001836008811015156102cc57fe5b01828154811015156102da57fe5b9060005260206000200160009054906101000a900473ffffffffffffffffffffffffffffffffffffffff1673ffffffffffffffffffffffffffffffffffffffff16141561034057828260088110151561032f57fe5b602002018051809190600101815250505b808060010191505061028b565b8180600101925050610236565b838395509550505050509091565b6103706104ba565b6103786104ba565b6803782dace9d90000003414151561038f57600080fd5b600083101580156103a05750600883105b15156103ab57600080fd5b60066001846008811015156103bc57fe5b01805490501015156103cd57600080fd5b6001836008811015156103dc57fe5b013390806001815401808255809150509060018203906000526020600020016000909192909190916101000a81548173ffffffffffffffffffffffffffffffffffffffff021916908373ffffffffffffffffffffffffffffffffffffffff160217905550506000809054906101000a900473ffffffffffffffffffffffffffffffffffffffff1673ffffffffffffffffffffffffffffffffffffffff166108fc349081150290604051600060405180830381858888f193505050501580156104a8573d6000803e3d6000fd5b506104b161020e565b91509150915091565b610100604051908101604052806008906020820280388339808201915050905050905600a165627a7a72305820d48d4a0001d621605c3ca6f611e1d7f4a53308a94d508e492c7683bfa49f62910029",
  "source": "pragma solidity ^0.4.24;\r\n\r\ncontract TreePresell {\r\n    uint constant TREE_TYPE = 8;\r\n    uint constant TREE_AMOUNT = 6;\r\n    uint constant TREE_PRICE = 64 ether;\r\n\r\n    address owner;\r\n\r\n    address[][TREE_TYPE] private treeOwners;\r\n\r\n    constructor() public payable {\r\n        owner = msg.sender;\r\n    }\r\n\r\n    function buy(uint treeType) public payable returns (uint[TREE_TYPE], uint[TREE_TYPE]) {\r\n        require(msg.value == TREE_PRICE);\r\n        require(treeType >= 0 && treeType < TREE_TYPE);\r\n        require(treeOwners[treeType].length < TREE_AMOUNT);\r\n        \r\n        treeOwners[treeType].push(msg.sender);\r\n        owner.transfer(msg.value);\r\n\r\n        return getSellInfo();\r\n    }\r\n\r\n    function getSellInfo() public view returns (uint[TREE_TYPE], uint[TREE_TYPE]) {\r\n        uint[TREE_TYPE] memory trees;\r\n        uint[TREE_TYPE] memory mine;\r\n        for (uint i = 0; i < TREE_TYPE; i++) {\r\n            trees[i] = TREE_AMOUNT - treeOwners[i].length;\r\n            mine[i] = 0;\r\n            for (uint index = 0; index < treeOwners[i].length; index++) {\r\n                if (treeOwners[i][index] == msg.sender) {\r\n                    mine[i]++;\r\n                }\r\n            }\r\n        }\r\n        return (trees, mine);\r\n    }\r\n\r\n    function getBalance() public view returns (uint) {\r\n        require(msg.sender == owner);\r\n        return address(this).balance;\r\n    }\r\n}",
  "sourcePath": "M:\\Workings\\newC\\Truffle\\contracts\\TreePresell.sol",
  "compiler": {
    "name": "solc",
    "version": "0.4.24+commit.e67f0147.Emscripten.clang"
  },
  "schemaVersion": "2.0.1",
  "updatedAt": "2018-09-30T03:59:29.082Z"
}